:030000000209C929
:1009C90078FFE4F6D8FD9000007F007E04E4F0A3F0
:0A09D900DFFCDEFA758136020A1E0B
:03002E00012900A5
:10092400120E26120DEA12000E120B73D2AF43CF31
:1009340010900045E030E7F6547FF01203FB8F2857
:100944008E278D268C2512082F09750000000109B9
:100954008000000002098B000000040996000000DA
:100964000809A10000001009AC00002000000009E3
:10097400B7E52964206048752920803EE529641084
:10098400603D7529108033E52964086032752908B3
:100994008028E52964046027752904801DE52964FD
:1009A40002601C7529028012E52964016011752911
:1009B400018007E5296008E4F52985299FC2A11271
:0509C4000EC002093223
:100E2600D2A1C2A4D2A6D2A743A1D27591FF759032
:080E3600FF5391CF43923022DB
:0D000E00758F80759E45759D8843A9012260
:03003B00020AF5C1
:100AF500C0E0C0D075D000C007E59D540764027002
:100B050059AF9FEF6445605C859F1CE51C30E00391
:100B1500D38001C392A6E51C30E103D38001C392C3
:100B2500A7E51C30E203D38001C39295E51C30E3B1
:100B350003D38001C39294E51C30E403D38001C341
:100B45009293E51C30E503D38001C39292E51C30F6
:100B5500E603C38001D392A4800AE59D540764038C
:0E0B65007002D2A1539DBFD007D0D0D0E03295
:100DEA00758AA3758CFDC28CD2A9D28CE4F5C9F59B
:0E0DFA00C875CBFC75CA18C2CAD2ADD2CA22C7
:0D001E00758B54758DE8C28ED2ABD28E2248
:03001B00020EB31F
:070EB300758B54758DE832C8
:03000B00020DAC37
:100DAC00C0E0C0D0758AA3758CFD051BD3E51B94E0
:0F0DBC0064748094804003751B00D0D0D0E03267
:03002B00020EBA08
:030EBA00C2CF3272
:100C3800000000000000000A000A0BB800C80064A9
:100C48000002000000000004FFFFFFFFFFFFFFFF9E
:100C58000014022604080F05006102260408110585
:100C68000058022604081305008602260408130506
:100C780000A00226040811050077022604080F05C3
:020C8800006406
:0400310041005B002F
:0B0E8300900C42E493FE740193FF22E8
:0B0E8E00900C46E493FE740193FF22D9
:08000300900C40740193FF22F0
:030EBD007F012290
:100D3600AD07ED75F008A42460F582E4340CF58364
:100D4600E493FEED75F008A42461F582E4340CF515
:0C0D560083E4937C002400FFEC3EFE22AE
:100E5300EF75F008A4245DF582E4340CF583E49384
:020E6300FF226C
:080EA300900C3A740193FF2248
:100E6500EF75F008A4245EF582E4340CF583E49371
:020E7500FF225A
:080EAB00900000E0C313FF22D8
:0A0E9900900000E075F00384FF22D2
:100E3E00120D36EF7803C333CE33CED8F9FF7C00D4
:050E4E007D0A0207749B
:100BE400E4FBFAF50BF50AF509F508750B1F750A10
:100BF40020F509F508EBC39417748094805032AF44
:100C04000BAE0AAD09AC0878011207FD8F0B8E0AF2
:100C14008D098C0830D71774132AF582E43400F553
:100C240083EBF00AEAC394067480948050030B802B
:030C3400C48A3639
:010C3700229A
:100D0900EF14601214601414601114601524047037
:100D190019900C5A8008900C5B8003900C5CE4934A
:0D0D2900FF22900C4C740193FF227F0022EA
:100DCB00900C3E740193900000F0900C58740193BA
:0F0DDB00900048F0120BE4E4900046F0A3F022E1
:1003FB00E4F508F50CF50BF50AF509F510F50FF515
:10040B000EF50D120EC35003020517120D878F0C3C
:10041B008E0B8D0A8C09E4FBEBC395365047AF0C62
:10042B00AE0BAD0AAC0978011207FD8F0C8E0B8D4C
:10043B000A8C0930D72CE47F01FEFDFC74132BF5DD
:10044B0082E43400F583E0F9F8120810E5104FF55B
:10045B0010E50F4EF50FE50E4DF50EE50D4CF50DB8
:10046B0005080B80B3AF087E00C3EF940274809431
:10047B00804018D200EF9403748094804005120ED4
:10048B00C68008120EA3EF6002C20020002CE4FF0E
:10049B00FEFDFCAB10AA0FA90EA80DC31207EC6052
:1004AB0010900047E004F07006900046E004F080E6
:1004BB0020E4900046F0A3F08017900044E004F095
:1004CB007006900043E004F0E4F510F50FF50EF51F
:1004DB000D120E83D3900047E09F900046E09E40A4
:1004EB000A120EC6E4900046F0A3F0D3900044E04D
:1004FB00942C900043E09401401D120EC690005BBB
:10050B007401F0E4900043F0A3F0800B900C48E4EE
:0F051B00740193FF12052BAF10AE0FAD0EAC0D98
:01052A0022AE
:040035004100620024
:10064A0075F002900049120823E0FEA3E0FFE513CB
:10065A0075F002900019020823E51275F002900065
:10066A0001020823E51275F0029000310208237492
:10067A00252516F582E43400F58322D3E5149FEE8E
:10068A006480F8E51364809822743D2512F582E4AB
:10069A003400F58322D3FFED9FEE6480F8EC64808A
:1006AA00982274552512F582E43400F58322E00479
:1006BA00F0740D2512F582E43400F58322E51375F2
:1006CA00F002900049020823FEC3E5159FEE6480FC
:1006DA00F8E51464809822E5315535FFE530553444
:1006EA00FEE52F5533FDE52E5532FC22742B2512DB
:1006FA00F582E43400F58322E4F0FFFEFDFCAB3121
:10070A00AA30A92FA82EC30207EC7E0090005EE053
:10071A00FCA3E0FD1207628EE78FE622E0FEA3E06B
:10072A00FF75F00222A4FFE0C39FE5F06480F8742D
:10073A00809822900048E0FB3395E0FAEBAE022263
:10074A00E0FCA3E0FDEF22E0FCA3E0C39F229000BF
:08075A0048E0FF3395E0FE22A8
:0C0E7700EF4E6007EF1F70F81E80F522A0
:03005B00020A6333
:100A6300C0E0C0F0C083C082C0D075D000C000C059
:0D0A730001C002C003C004C005C006C007DA
:100A8000C202900063E012065AE5E5F0A3E5E4F047
:100A9000900063E004F0E0C39536400BE4F0900072
:100AA00045E04480F08002D202900063E0FF120E25
:100AB00053120714900063E0FF120E65E5E25480C4
:100AC0004FF5E2900063E02413F582E43400F583EF
:0A0AD000E04480F5E8300202D2EEA7
:100ADA00D007D006D005D004D003D002D001D00070
:0B0AEA00D0D0D082D083D0F0D0E0321A
:100B7300D2AF75E880C201E4900063F0900045F0C5
:100B8300120DCBE4FF120D09EF2401FDE433FC7ECB
:100B93000B7FB812077490005EEEF0A3EFF0E4FF52
:100BA300120E531207147F02120D09EFC454F0FE04
:100BB300C006E4FF120D09D0E02FF5E17F03120D0B
:100BC30009E5E254804FF5E27F01120D098FE3122C
:100BD3000C8A43A910900013E042E8120CD60200DD
:010BE3003ED3
:030EC000D2EE224D
:100D6200E4FD900045E0547FF0D2EE900045E02093
:100D7200E7127FE87E03120E7743CF100DEDC39486
:040D82003240E822F1
:010D8600224A
:100CD600750810120D62AF081508EF70F6120E08AF
:100CE6001200038F08120D62E4F509E509C3953673
:100CF6005009AF09120869050980F0AF081508EF19
:020D060070E398
:010D080022C8
:10003E00E4FFEFC395365012EF12065A12074A121A
:0A004E000665ECF0A3EDF00F80E86A
:010058002285
:100D8700E4900064F0F511E511C39536500EAF11EC
:100D9700120869AF1112005E051180EBAF31AE305A
:040DA700AD2FAC2E92
:010DAB002225
:02005E008F12FF
:10006000E4F51A75F002EF120668120726E512127F
:10007000065D120751F514EC9EF513E47F01FEFDB9
:10008000FCA912A8011208108F358E348D338C32E2
:10009000AF12120D368E188F19C3E5149519E51895
:1000A00012068A40057515018003E4F515E515640F
:1000B0000160030201E57425251212067DE0C39458
:1000C000FA500A7425251212067DE004F01206E1AA
:1000D000E4FBFAF9F8C31207EC60030201C89000D0
:1000E00000E0F517120EBDEF6028E4F515F516E5F2
:1000F00016C39536500F120679E0C39401400205ED
:1001000015051680EAE515C394034006740F2517FC
:10011000F5177425251212067DE0C39517500302CA
:1001200001C8E4F515120EA3EF7051F516E516C3DC
:100130009536501AE51265166010120E991206795E
:10014000E0C39F40057515018004051680DF120E7F
:10015000BDEF7052E515704EF516E516C395365095
:1001600045E51265166011120E99742B25161206BC
:10017000FAE0C39F4002802B051680DE120EBDEF11
:100180007024F517F516E516C39536500F1206794B
:10019000E0C3940240020517051680EAE517C394F0
:1001A000034003751501E515B40102D200E53145A0
:1001B00035FFE5304534FEE52F4533FDE52E45326C
:1001C0008F318E308D2FF52E120693E4F01206AC8F
:1001D000E4F012066EE4F0A3F0740D2512F582E44B
:1001E00034000203B8AF12120E3E12068540081208
:1001F00006F6E004F0800B900064E004F01206F6CE
:10020000E4F0120758C3E49FFDE49EFCC3E5149D8F
:10021000EC12068A40661206855061120693E412BB
:1002200006BA120702600302032512066EE5138563
:1002300014F01207C9120E8E12066EE0FCA3E0C382
:100240001206A24009120663E475F0018021120E25
:100250008EC3E49FFFE49EFE12066EE0FCA3E0C3A3
:100260001206A2400302032512066374FFF5F01282
:1002700007C912066EE4F0A3F0020325900048E0DF
:10028000FFFD3395E0FCC3E49DFDE49CFCC3E51455
:100290009DEC12068A50571206931206B8E4F0122B
:1002A0000693E0FE75F00A84E5F07034EEC39464C2
:1002B000400E120693E4F0D20190005B04F080201F
:1002C000120663C083C08212074AA2E713FF339568
:1002D000E0FEC3ED9FFFEC9ED082D083F0A3EFF051
:1002E00090005DE06512703D74FFF0020325120777
:1002F00058120685402F1206931207027027120625
:10030000BB1206B8E0B4201D1206BBE4F090004812
:10031000E0A2E713A2E713FF3395E0FE120663EEB7
:100320008FF01207C91206E14D4E4F70030203C44D
:10033000E519AE187802CEA2E713CE13D8F8FFC3A2
:10034000E5199FFFE5189EFEC3120686506F120640
:10035000ACE004F0120EAB8F17E4F516E516C3956A
:1003600036500F120679E0C39401400205150516B8
:1003700080EAE515C394034006900000E0F51712EB
:1003800006ACE0C3951740721206ACE4F0AF35AE90
:1003900034AD33AC321207DFE5315FFFE5305EFE8E
:1003A000E52F5DFDE52E5C8F318E308D2FF52E749F
:1003B000252512F582E43400F583E4F0221206AC20
:1003C000E014F0227425251212067DE4F0E53614BF
:1003D00065127026900064E0C39536401DE4F51662
:1003E000E516C39536500D120679E06003751501C8
:0A03F000051680ECE5157002C2004E
:0103FA0022E0
:100E0800E4FFEFC39536501575F002EF12065D1238
:0D0E1800074A1206C9ECF0A3EDF00F80E5CB
:010E250022AA
:020869008F13EB
:10086B00EF12064A120751F515EC9EF514AF131251
:10087B000D36AD07AC06D3E5159DEC1206D8500B23
:10088B00C3E49DFFE49C1206D2500B120658E0FE07
:10089B00A3E0FF020911ECA2E713FEED13FFD31245
:1008AB0006D4500BC3E49FFFE49E1206D2502712CE
:1008BB0006C7E0FCA3E0FDECC313FEED13FFC3ED95
:1008CB009FFDEC9EFC120658E0C313FEA3E0132D14
:1008DB00FFEC3EFE80301206C7E0FCA3E0FDAE0449
:1008EB007803CEC313CE13D8F9FFC3ED9FFDEC9E57
:1008FB00FC120658E0FEA3E07803CEC313CE13D848
:10090B00F92DFFEC3EFE1206C7EEF0A3EFF0E51358
:08091B0012064AEEF0A3EFF012
:0109230022B1
:030EC300A2012267
:030EC600D2012234
:100C8A00E4FFEFC39536502B74252F12067DE4F04E
:100C9A00743D2F120697E4F074552F1206B0E4F053
:100CAA00EF120670E4F0A3F0742B2F1206FAE4F0A8
:100CBA000F80CFE4F531F530F52FF52E90005D74F5
:0B0CCA00FFF0E4900060F0A3F0C20116
:010CD50022FC
:02052B008F112E
:10052D00900062E0C394034035E4F090005BE0700E
:10053D0022F512E512C39536501975F002E5121227
:10054D0006CC120726E512120668EEF0A3EFF005B1
:10055D001280E0120C8AC201E490005BF022900040
:10056D005CE004F0E0B51108120E08E490005DF0B7
:10057D0090005CE0D395115003020649E4F512E5B5
:10058D0012C39536507A75F002E5121206CC120799
:10059D0026E51212065D120751FFEC9EAD07FC9089
:1005AD00005BE0702912073D7802C333CE33CED8FD
:1005BD00F912069F4040E49BFFE49AFEEF7802C3D8
:1005CD0033CE33CED8F9C31206A0502A803212078B
:1005DD003D7803C333CE33CED8F912069F4017E4CE
:1005ED009BFFE49AFEEF7803C333CE33CED8F9FFE9
:1005FD00C31206A1400AAF12120869051202058C3A
:10060D00E512B5360690005DE004F0E51175F008D1
:10061D0090005C12072F4024E4F0C200900062E0CD
:10062D0004F0E51175F00490005D12072F400DE404
:0C063D00900062F012003E120C8AC20114
:01064900228E
:1009E300020924E493A3F8E493A34003F68001F2FD
:1009F30008DFF48029E493A3F85407240CC8C33315
:100A0300C4540F4420C8834004F456800146F6DFE3
:100A1300E4800B010204081020408090002EE47E45
:100A2300019360BCA3FF543F30E509541FFEE493D8
:100A3300A360010ECF54C025E060A840B8E493A39F
:100A4300FAE493A3F8E493A3C8C582C8CAC583CACA
:100A5300F0A3C8C582C8CAC583CADFE9DEE780BE82
:0100390000C6
:10076200EF8DF0A4A8F0CF8CF0A428CE8DF0A42EAB
:02077200FE2265
:10077400BC000BBE0029EF8DF084FFADF022E4CC69
:10078400F875F008EF2FFFEE33FEEC33FCEE9DEC32
:10079400984005FCEE9DFE0FD5F0E9E4CEFD22ED78
:1007A400F8F5F0EE8420D21CFEADF075F008EF2FC2
:1007B400FFED33FD4007985006D5F0F222C398FDB3
:0507C4000FD5F0EA2250
:1007C900C5F0F8A3E028F0C5F0F8E58215827002BB
:0607D9001583E038F02258
:0D07DF00CFF4CFCEF4CECDF4CDCCF4CC22AF
:1007EC00EB9FF5F0EA9E42F0E99D42F0E89C45F063
:0107FC0022DA
:1007FD00E8600FECC313FCED13FDEE13FEEF13FFDA
:03080D00D8F122FD
:10081000E8600FEFC333FFEE33FEED33FDEC33FC46
:03082000D8F122EA
:0C082300A42582F582E5F03583F58322E0
:10082F00D083D082E4937012740193700DA3A393BD
:10083F00F8740193F5828883E4737402936C7012D9
:10084F007403936D700C7404936E70067405936F3C
:0A085F0060DDA3A3A3A3A3A380CA36
:00000001FF
